:030000000200C437
:0C00C400787FE4F6D8FD75810B02010B7B
:10016E003F065B4F666D7D077F6F777C395E7971D9
:09017E0040FEFDFBF7EFDFBF7F3F
:03000300010B00EE
:10000E00E4F508F509F50A758901758C4C758AD0E9
:10001E00D2AFD2A9D28C900186E493FFE50A1201E9
:10002E0050900185E493FFE50A75F00A841201569B
:10003E00900184E493FF90017EE493FD12015B90A6
:10004E000183E493FFE509120150900182E493FFCE
:10005E00E50975F00A84120156900181E493FF9030
:10006E00017EE493FD12015B900180E493FFE508AD
:10007E0012015090017FE493FFE50875F00A841297
:10008E000156E50BC39414408DE4F50B050AE50A01
:10009E00943B4082E4F50A0509E509943B500302BE
:1000AE000024E4F5090508E508941850030200241D
:0600BE00E4F50802002435
:03000B0002019F50
:09019F00758C4C758AD0050B32F9
:10018700E4FDFCC3ED9FEC9E500DE4FB0BBB6EFC46
:070197000DBD00010C80EC1E
:01019E00223E
:0B01500075F00A84E5F090016E93FD4D
:10015B00E4FE8F80D2B6C2B68D80D2B7C2B70EBEC8
:02016B00FAFC9C
:01016D00226F
:1000D00002000EE493A3F8E493A34003F68001F238
:1000E00008DFF48029E493A3F85407240CC8C33331
:1000F000C4540F4420C8834004F456800146F6DF00
:10010000E4800B0102040810204080900003E47E8C
:10011000019360BCA3FF543F30E509541FFEE493F4
:10012000A360010ECF54C025E060A840B8E493A3BB
:10013000FAE493A3F8E493A3C8C582C8CAC583CAE6
:10014000F0A3C8C582C8CAC583CADFE9DEE780BE9E
:0100060000F9
:00000001FF
