:0300000002000EED
:0C000E00787FE4F6D8FD75810A020055E9
:10016D003F065B4F666D7D077F6F777C395E7971DA
:09017D0040FEFDFBF7EFDFBF7F40
:03000300010A00EF
:10009A00750800750964758901758C4C758AD0D20A
:1000AA00AFD2A9D28CC2B6C2B7AE08AF097C007D66
:1000BA000A120118746D2DF58274013CF583E493DC
:1000CA00FD900185E493FF12019EAE08AF097C0002
:1000DA007D0A120118746D2FF58274013EF583E4CE
:1000EA00932480FD900184E493FF12019EE50AC3E4
:1000FA00940240B5E4F50AE509150970021508D31A
:0E010A00E5099400E5089400509FC28C809B8C
:03000B000201B13E
:0901B100758C4C758AD0050A32E8
:10018600E4FDFCC3ED9FEC9E500DE4FB0BBB6EFC47
:070196000DBD00010C80EC1F
:01019D00223F
:10019E00E4FE8F80D2B6C2B68D80D2B7C2B70EBE85
:0201AE00FAFC59
:0101B000222C
:10001A0002009AE493A3F8E493A34003F68001F262
:10002A0008DFF48029E493A3F85407240CC8C333E7
:10003A00C4540F4420C8834004F456800146F6DFB6
:10004A00E4800B0102040810204080900003E47E43
:10005A00019360BCA3FF543F30E509541FFEE493AB
:10006A00A360010ECF54C025E060A840B8E493A372
:10007A00FAE493A3F8E493A3C8C582C8CAC583CA9D
:10008A00F0A3C8C582C8CAC583CADFE9DEE780BE55
:0100060000F9
:10011800BC000BBE0029EF8DF084FFADF022E4CCCB
:10012800F875F008EF2FFFEE33FEEC33FCEE9DEC94
:10013800984005FCEE9DFE0FD5F0E9E4CEFD22EDDA
:10014800F8F5F0EE8420D21CFEADF075F008EF2F24
:10015800FFED33FD4007985006D5F0F222C398FD15
:050168000FD5F0EA22B2
:00000001FF
