:030000000200A15A
:0C00A100787FE4F6D8FD758107020003AB
:100089003F065B4F666D7D077F6F777C395E7971BF
:08009900FEFDFBF7EFDFBF7F66
:100003009000A012005590009FE49390008A120084
:100013005A90009EE493FF90008BE493FD12005EE0
:1000230090009D12005590009CE493FF90008BE498
:1000330093FD12005E90009B12005590009AE4938A
:10004300FF900092E493FD12005E90009912005518
:0200530080AE7D
:10007100E4FDFCC3ED9FEC9E500DE4FB0BBB6EFC5D
:070081000DBD00010C80EC35
:010088002255
:09005500E493900089FFE493FD9F
:10005E00E4FE8F80D2B6C2B68D80D2B7C2B70EBEC6
:02006E00FAFC9A
:01007000226D
:00000001FF
